:1000000000000120A5330000A1330000A13300004F
:10001000B9100000A1330000A1330000A13300009B
:10002000A1330000A1330000A1330000A133000080
:10003000A1330000A1330000A1330000A133000070
:10004000A1330000056C0000A1330000A1330000C3
:100050006D640000496C0000116C0000156C00001C
:10006000096C0000A1330000A1330000A13300009F
:10007000A1330000A1330000A1330000A133000030
:10008000A1330000A1330000A1330000A133000020
:10009000A1330000A1330000A1330000A133000010
:1000A000A1330000A1330000A1330000A133000000
:1000B0004D6C00000D6C0000A1330000896C000045
:1000C000A133000055540000A1330000A13300000B
:1000D000A1330000A1330000A1330000A1330000D0
:1000E000A1330000A1330000A1330000A1330000C0
:1000F000A1330000A1330000A1330000A1330000B0
:10010000A1330000A1330000A133000010B5054C5D
:10011000237833B9044B13B10448AFF300800123B3
:10012000237010BDC80000200000000044B400008F
:1001300008B5034B1BB103490348AFF3008008BD6A
:1001400000000000CC00002044B40000A3F5803A79
:10015000704700BF174B002B08BF134B9D46FFF79E
:10016000F5FF00218B460F461348144A121A08F077
:10017000E5FF0E4B002B00D098470D4B002B00D015
:1001800098470020002104000D000D48002802D0EF
:100190000C48AFF3008008F09FFF2000290002F018
:1001A000FBF908F085FF00BF000008000000000018
:1001B0000000000000000120C80000204C180020B2
:1001C0000000000000000000BFF34F8F0549064B00
:1001D000CA6802F4E0621343CB60BFF34F8F00BFE5
:1001E000FDE700BF00ED00E00400FA0510B502468F
:1001F00000B3114B1968888890421BD398889042AD
:1002000081BF0968996001209880998898680024C6
:1002100028B904B198604FF6FF729A8009E08A42CB
:1002200004D00131006889B20124F1E70CB19A8051
:10023000986010BD0020FCE7EC060020114A916A8E
:1002400001F1704303F5F813B3F5006F0CD2D2F847
:100250002838A3F17E62A2F58432B2F5104F03D2A2
:100260000968094A914203D00023037083607047F4
:100270001968064A9142F7D1012202709A684260D9
:100280009B69F3E70000E10FAD1007B007B0CD5E4A
:1002900010B50C4630B90448FFF7D0FF04300423F2
:1002A0002060A380002010BDA4010020064BD3F8DD
:1002B0002828A2F17E63A3F58433B3F5104F01D251
:1002C000536A1847002070470000E10F0D4B10B42F
:1002D000D3F82848A4F17E63A3F58433B3F5104F17
:1002E0000BD2246BA4F17E63A3F58433B3F5104FD6
:1002F00003D2A36B5DF8044B184740F201105DF880
:10030000044B70470000E10F0B4BD3F82828A2F1F3
:100310007E63A3F58433B3F5104F09D2126BA2F1BB
:100320007E63A3F58433B3F5104F01D2D36B184726
:1003300040F20110704700BF0000E10F024BD3F8FC
:10034000F80080B2800270470081E00F7FB50F4A4D
:1003500003466D4602F11006106851682C4603C42E
:100360000832B2422546F7D15A1E0DF10F010F3364
:1003700011F8010912F8014F844204D19A42F7D1D1
:10038000012004B070BD0020FBE700BFD492000044
:1003900070B5154E306810BB144B154CE41A154B54
:1003A0001C4424F4FF6424F00704FFF7C7FF8442D1
:1003B00014D2656BA5B1FFF7C1FF854210D2FFF7DC
:1003C000BDFF05F1400383420AD82846FFF7BEFF70
:1003D00030B1EB6933F0080302D03460306870BD8F
:1003E00004F50064E1E700BF480100201000002090
:1003F000C40000208FBC0000094B40F201121A60BB
:100400004FF0FF329A6001225A600144814202D1CA
:10041000D869C043704710F8012B9A61F6E700BF16
:1004200000C00140034B044A9979117500221A60FB
:10043000704700BF900D00208406002030B50022D8
:100440008BB01346D91003F00704415C2141CC075F
:1004500041BF0AA98918013201F8283C0133252B34
:10046000F0D10E4C0023D91003F00705415C29415F
:10047000C9075FBF0AADB3FBF2F102FB11314919A5
:1004800048BFD9B203F1010358BF11F8281C04F882
:10049000011B252BE7D10BB030BD00BFAE060020FD
:1004A00010B5034CA01DFFF7C9FF0023236010BD4A
:1004B000900D0020084A10B5136840F2E24404FB96
:1004C00001316043536800F5807001EB500118441E
:1004D0001160506010BD00BF84060020D0B50C4CE8
:1004E000E38C0A20584308F047FB0646A08C0F46D1
:1004F00008F042FB074B002208F0A8FB02460B461F
:100500003046394608F0CCFC08F0B2FD2083D0BD5F
:10051000840600200000F43F10B5094CB4F8071021
:10052000A079FFF7C7FFA368064AB4F80D10D1847D
:10053000C3F30F239384FFF7D1FF0023236010BD83
:10054000900D002084060020837DDB0701D5808A82
:100550007047D0E901239B1A44BF828A9B1898B246
:1005600070470000084BD3F8F020D3F8F430027045
:10057000110A120C82701A0AC2701A0C1B0E4170FA
:1005800002714371704700BF0081E00F034BD86BCD
:1005900080F04000C0F38010704700BF00300E4074
:1005A00008B5FFF7F3FF20B1024AD2F8C830002B9C
:1005B000FBD108BD0000C64308B5FFF7F1FF024BB1
:1005C0005868C0F3014008BD00300E400C4B984203
:1005D00010D90C4B984210D9022201230A490B640E
:1005E0000A49D1F8003123F0807343EA0263C1F86D
:1005F0000031704700221346F0E70122FBE700BFFD
:100600000048E8010090D0030000C84300400E40BD
:100610000F4B5B680F4B30B500221C46C9B21D79E9
:100620008D4202D11D6885420DD20132052A03F1A7
:100630000803F4D1032206494B6823F0407343EAD0
:1006400002634B6030BD04EBC2025279F3E700BF96
:1006500000000E401094000038B5054C41F671338F
:10066000256C2364FFF7D4FF0DB10023236438BD4C
:1006700000000E4042EA0323B3F5007F39D016D8BC
:10068000B3F5807F31D007D85BB3012B1ED0002299
:10069000134603600A60704740F201129342F6D19C
:1006A000184BD3F824321A0EC3F30743F1E7B3F51E
:1006B000407F22D040F2013293420ED040F201221C
:1006C0009342E4D10F4BD3F8283202E00D4BD3F81C
:1006D0002432C3F30722DBB2DBE70A4BD3F828321C
:1006E000E1E7084BD3F81C32F3E7064BD3F81C3292
:1006F000D9E7044BD3F82032EBE7024BD3F8203292
:10070000D1E700BF0081E00F2F4B1A6FD96C11F0B9
:10071000010F02F0060242D0002A40D013284FD920
:10072000143813288CBF102308232749013BCA6CB7
:10073000180322F47F4240EA03231343CB64234B84
:10074000CA6C1B88C2F303222833013202EB8200F9
:1007500003EB5303B3FBF0F3C86C013B072B28BF3B
:10076000072320F0EE6040EA036343F48013CB6478
:10077000174BB3F90030002B10DB2833500800EB87
:10078000420203EB5303B3FBF2F30A6D072B28BFBE
:10079000072322F0700242EA03130B657047D96CFD
:1007A00001F00101114304D1092809D90A380928A7
:1007B000B8E7DB6C13F00103B7D01AB92728B1E70B
:1007C0000423B2E70023B0E700300E400207002008
:1007D0000407002070B51D4DD5F82828A2F17E63CE
:1007E000A3F58433B3F5104FE0B004D34FF4017494
:1007F000204660B070BD136B002BF7D05B6A4FF4DE
:10080000C07269460020984704460028F0D140F2A3
:100810000126D5F82828A2F17E63A3F58433B3F529
:10082000104FE3D2126BA2F17E63A3F58433B3F5CC
:10083000104FDBD2936A002168469847B042E8D057
:1008400040F20323984218BF0446D1E70000E10FAD
:10085000104A0B46D2F82818A1F17E62A2F5843224
:10086000B2F5104F10B40FD2096BA1F17E62A2F560
:100870008432B2F5104F07D20C69074A0146A446EC
:1008800000205DF8044B60474FF481705DF8044B25
:10089000704700BF0000E10F3407002037B5044661
:1008A000684680E8060003C8251D85E80500237317
:1008B000069B0B4A2361BDF81C30A38200232360F2
:1008C000136853B119461B68002BFBD10C6090884C
:1008D000013080B2908003B030BD1460F7E700BFF4
:1008E000E406002037B50D461446FFF77FFC70B1D3
:1008F000036973B1818A4FF6FE72914209D1009566
:10090000ADF8044069460120984703B030BD01208E
:10091000FBE70E20F9E7036937B514460D46828AD6
:1009200063B14FF6FE718A4208D100200090ADF805
:1009300004006946984728B103B030BD2B60002001
:100940002280F9E7009B2B60BDF804302380F3E799
:1009500038B50D461446FFF749FC40B122462946FA
:10096000FFF7D9FF10B92B6803B9208038BD0120EB
:10097000FCE7000007B503790193054A036800937B
:1009800006CA02230830FFF789FF03B05DF804FBB5
:100990006C940000034B5A6D12B95865A3F85810B7
:1009A000704700BF8406002070B50C4690B9FFF771
:1009B000EFFC58B1436B084D03F1400618685968C5
:1009C0002A4603C20833B3421546F7D1034B2360CE
:1009D0000423A380002070BD4C0100206C01002086
:1009E0002DE9F04116460546FFF7AEFDB04228BF9F
:1009F000304686B20F46B046B8F1000F09D12EB18D
:100A0000AB7DDA0744BF23F00103AB753046BDE888
:100A1000F0812B68AC8A69681C44641AA4B244450E
:100A200028BF44462246384608F07AFB6A682B689D
:100A3000A98A2244194427448A4238BF1346A8EBA6
:100A400004041FFA84F86B60D6E7F8B51F46038AE2
:100A500004461646EBB9C57DDDB10123013D0B709F
:100A60000222C57500F11001FFF7BAFFE37D9BB1CB
:100A7000228ABA4228BF3A4631462046FFF7B0FFE5
:100A8000238A1B1A2382E37D13B9638A1B1A6382AC
:100A9000F8BD00230B70EBE7638A2382E8E72DE9BA
:100AA000F04104460F461146FFF74EFDA38A181A7F
:100AB00086B28E4228BF0E46B046B8F1000F0BD169
:100AC0003EB1D4E901329A4202BFA37D43F0010353
:100AD000A3753046BDE8F0812368A58AA0681D444F
:100AE0002D1AADB2454528BF45462A46394608F07D
:100AF00017FBA2682368A18A2A4419442F448A421A
:100B000038BF1346A8EB05051FFA85F8A360D4E7A4
:100B1000F8B5044616461F4611B3FFF715FDA58A22
:100B2000281A80B2012829D9E37D63B1E068658A7B
:100B300005702D0A07D02268A38A01301344984219
:100B400028BF1046F4E700236382A368E360022213
:100B500004F112012046FFF7A2FFE37D0133E375A4
:100B60003A4631462046FFF79AFF638A0344638280
:100B7000E37D13B9238A03442382F8BD0020FCE7F8
:100B800013B50379124A03330446019300F1440379
:100B9000009306CA02231430FFF780FE238A0193D4
:100BA000E368009394E80600237A04F12C00FFF731
:100BB00075FE237A22792168A4F8450004F14700E4
:100BC00084F8443002B0BDE8104008F0A9BA00BF74
:100BD0006494000070B50C4C0C4B06460D46D4E9ED
:100BE000010183E803001846FFF7C4FE084BD4E96F
:100BF000040102221A7283E80300DE601D82184697
:100C0000BDE87040FFF7BCBF7893000010120020D1
:100C1000CC0400202DE9D34FDDF82890BDF82CA09E
:100C200004460F4690461E46FFF7E0FA8346BBF1A6
:100C3000000F01D0BC4205D94FF6FF74204602B028
:100C4000BDE8D08F9BF808309E421CD1DBF8040031
:100C50003246414608F082FAA8B9B9F1000FEDD04A
:100C60000DF1020201A95846FFF755FE58B9019946
:100C700049B1BDF80230534505D15246484608F007
:100C80006DFA0028DAD00134DBF800B0A4B2CEE768
:100C900038B50C4611462568AD1A2A46014408F0BD
:100CA0006DFA256038BD00002DE9F84F494F4A4BD9
:100CB000D7F80090DFF84481A0EB09068246474848
:100CC000C8F800601B1A4648034423F4FF6323F06E
:100CD00007039E4278D3FFF731FB0AEB0204A0F52D
:100CE0008050844273D8386800EB020BBBF5806FEC
:100CF00003D93C4B82221A7064E03B4D284408F033
:100D00000FFA3A4BC7F800B01A6822B9BBF1330F9B
:100D100058D96A6B1A601868864206EB0B041FD814
:100D200084421DD900F110039C424BD38144A9EBAE
:100D30000A0A55442E4A2B4605F1100153F8040BBC
:100D400042F8040B8B42F9D12948FFF7FFFA10B99A
:100D5000244B8422CFE71022FF21284608F0EEF929
:100D6000244D254B28680BF0030BA4EB0B041C400F
:100D700058B906EA0300C0F500612144FFF7C4FA40
:100D80002C6040B1174B8522B5E7A04203D2211A4F
:100D900000F50060F2E73A681349D8F80000A2EBCA
:100DA0000B02FFF793FA3A68D8F800300949A2EB32
:100DB0000B02044613440C48C8F80030FFF768FFE4
:100DC000002CDFD1BDE8F88F064B872293E7054B57
:100DD000832290E7C4110020C400002010000020EE
:100DE0008FBC0000390B0020C40D0020C00D002076
:100DF000B00D0020C811002000F8FFFF3C0B0020C0
:100E000037B50023114C0093437A6060D0E900218C
:100E1000206802F05AFF238CDB050CD563680C4D6B
:100E20001B7A2A789A4206D0012B06D0022B08D0D2
:100E300063681B7A2B7003B030BD206802F020FF7E
:100E4000F6E7206802F022FFF2E700BFCC11002095
:100E5000E106002013B50D4B0D4C1B8BADF8043093
:100E60000128ADF8003004BF02238DF8043001A939
:100E700008BF0423206808BF8DF8003002F034FE5C
:100E80002068694602F046FE02B010BD789300006B
:100E9000CC110020034B00221A61186801220321A3
:100EA00002F042BBCC1100201FB502238DF80630A2
:100EB000064B5A8B596918680332ADF804206A460C
:100EC00002F09CFE009805B05DF804FBCC110020F8
:100ED00010B51E4C1946236986B023B3A2F1080051
:100EE000084322D101AA0321206802F083FE63682F
:100EF00060615B7A23769DF80430DA1F53425341D8
:100F0000627E63F30002039BE361BDF80630627604
:100F1000638304F1180102202369984720680122A5
:100F2000002102F06DFE06B010BD02F17F400143CA
:100F300005D10021012006B0BDE81040184712F489
:100F4000A0411ABF00210320FF20F4E7CC110020AC
:100F5000F0B5194C194D87B0637A0133DBB2272BFA
:100F600088BF252320466372FFF74AFF627D14493C
:100F70002868E768667C4FF40073023202F01CFEBA
:100F80006B68104A5B7A06F00106D15C039130462B
:100F9000FFF760FF01230022059303992868009260
:100FA00004AB049702F0C4FA10B1FFF773FFD3E764
:100FB000054B2B6107B0F0BDE4000020CC110020F0
:100FC000F80000203994000041200000EFF3108069
:100FD00072B670470048704700F049020E49D1F8D8
:100FE000942002F00702042A0BD8022A0FD811D14C
:100FF0000A4BD1F80001C0F304200130B3FBF0F03C
:101000007047074B0748052A08BF0346F1E74FF42E
:101010000043EEE7024BECE700400E4000F04902CF
:10102000C0EA210160F5900008B5FFF7D7FF044B37
:10103000D3F80831C3F308230133B0FBF3F008BD44
:1010400000400E4013B502460C46FFF79FFAF0B180
:1010500022B9104BD3F80031FFF7C0FFFFF796FA23
:10106000A8B1FFF7A9FA90B10A4BD3F80031FFF706
:10107000B5FF094B40221A611CB10190FFF790FAAD
:101080000198002102B0BDE81040FFF7E5BA02B0B8
:1010900010BD00BF00400E4000300E40044B054A1A
:1010A0009A60D3F8882042F47002C3F88820704711
:1010B00000ED00E00000000008B5FFF785F870477C
:1010C000FEE7000038B5C0F30323013B04460D469C
:1010D000092B1CD8DFE803F033231C1B0526291B32
:1010E0002C30184B0022C4F3043442B11649D1F815
:1010F0004401C00703D4D1F840010242FBD103F1FF
:10110000424303F5801304EBC3039B001D6038BD0D
:10111000FFF78AFFFFF75AFA0C4B0022E3E70C4B6C
:101120000022E0E70B4B0122DDE70B4B1022DAE750
:101130000A4B4FF48032D6E7094B0022D3E7024B2B
:101140000022D0E7B0400E4000400E40B8400E40B4
:10115000C0400E40E0400E40E8400E40F0400E40DF
:1011600050410E402DE9F84FDFF808A13E4D9AF8A6
:101170000070814688461646002F38D1FFF7DEF80A
:101180003A4CA0F580502060FFF7D8F8A0F5006039
:10119000606001213648FFF795FF20680821043080
:1011A000FFF72AF923681B68984208BF2368606824
:1011B00008BFD3F804B04FF0080100F104000CBFE1
:1011C0000127BB46FFF718F963681B68984205D1F1
:1011D00063685B685B4505D8002304E0002FFBD102
:1011E000FF2300E001232B7001238AF8003095F9DA
:1011F00000305A1C28D01D4ADFF87CA052F823701A
:101200000C373D464FF6FF7BC5F30A030833B3F5B1
:10121000006F19D2AB885B4516D0A979281D04311F
:10122000FFF7EAF82B68EC889842E4B202D1AB8869
:101230004B450CD0033404F4FE740834254487EA8B
:10124000050313EA0A0FDFD0002030700AE033787C
:10125000A342F9D3224605F10801404607F060FF9A
:1012600034700120BDE8F88F10000020F80600203F
:1012700000650A007812002000F8FFFF00F00F0060
:101280000138072844D8DFE800F0040F1943232D64
:101290004335244BD3F8943003F00703023B052B6E
:1012A00038D8214AD05C70471E4BD3F8803003F009
:1012B0000703013B032B2FD81C4AF3E7194BD3F844
:1012C000843003F00703013B032B25D8184AE9E7D4
:1012D000144BD3F8883003F00703013B032B1BD8D2
:1012E000144ADFE70F4B1B6F13F0010F0CBF0720F1
:1012F000092070470B4BD3F85C3103F03003202BEF
:101300000CD0302B0CD0102B14BF012007207047BD
:101310000020704705207047012070470420704767
:101320000820704700400E409C930000A2930000EC
:10133000A6930000A29300000428F8B56CD8474B90
:1013400013F800C0464B1D5C464B002970D0464C3C
:10135000022834F8106060D15C6A14F0300F5CD160
:10136000424CE46B5C6AE40705D55F6A27F03007FE
:1013700047F010075F623E4C3A4B25441E66AD00B5
:101380002B68002BFCD0002A46D06444A4002368BC
:10139000002BFCD002283FD100293DD0314B5A6AA6
:1013A000D1073CD54FF48062C3F8A82020225A66AA
:1013B0005A6A12F0300F0CBF4FF440024FF4000293
:1013C000D3F8901032EA0101FAD1520201D5D3F8D4
:1013D000A030244D012200210220D5F89C70FFF797
:1013E000ABFFD5F890306A6A224B22F0300242F00F
:1013F00010026A62C7F30A07296BFA0903320F2A3F
:1014000003EA010328BF0F223B4343EA02732B6325
:101410002E662368002BFCD0F8BD0021ABE75A6A8A
:10142000D3F8902002F44002B2F5400FF8D1CEE795
:10143000114931F810101966012101FA05F5D3F8A8
:1014400090102942FBD1002AE6D00124054A04FA73
:101450000CF4D2F890302342FBD1DDE7AA930000D0
:10146000AF93000000400E40B493000000300E40E7
:101470008004F21000F8FF0FBE9300001128F8B5A9
:1014800005460C4611D104290FD16248614E002156
:10149000FFF7D8FD05F00F056B1E072B61D8DFE8BD
:1014A00003F011065C605A7B60860026F2E75A4D15
:1014B000013C092C55D8DFE804F06D555C545463A9
:1014C00054545452023C0A2C4BD8DFE804F03F3C01
:1014D00031374A4A4A4A4A0642000320052501227A
:1014E0001146FFF729FF4D4C4A48276C41F67133EE
:1014F00023640021FFF78CF80FB1002323640EB1A1
:10150000FFF74EF8464B5D67FFF78EFD0446FFF789
:1015100065FDFFF75BF8FFF74FF801462046FFF740
:101520009BF8F6B930460121BDE8F840FFF78ABDC7
:101530003C48FFF74BF802200546D0E73948FFF753
:1015400045F80320CBE701200325C8E70020042548
:10155000C5E70725C7E7344DAAE7344DA8E70423BC
:101560002B60F8BD012211460020FFF7E5FE0223A3
:10157000F6E7012211461046FFF7DEFE0123EFE7F2
:10158000FFF72CFDFFF722F8294B0122C3F80826AC
:101590000323E5E70023E3E7072C04D0092CE0D17F
:1015A0001F4B012201E01E4B00221A67D9E7013CC4
:1015B000072CD6D801A353F824F000BF0F16000063
:1015C000631500006315000001160000631500009C
:1015D00063150000F3150000DD150000032210491B
:1015E000D1F85C3123F0300343EA0213C1F85C31D7
:1015F000B7E7012211460420FFF79EFE0122EEE725
:10160000012211460220FFF797FE0222E7E700229F
:10161000E5E700BF00F0490280400E4000000E40A8
:1016200000400E400148E80188400E4084400E40D2
:101630000010C84300B962B6704700002DE9F041C0
:101640000D4F06460D4614460CB9BDE8F081EFF388
:10165000108872B623462A4631463846FFF758FAB4
:1016600003464046FFF7E6FF002BEDD0E41AA4B294
:101670001D440026E8E700BF740C002013B50023CA
:1016800001F10804ADF80430ADF8060021461A4611
:1016900051F8080C083170B90BB1ADF804200422E0
:1016A0000DEB020101200834FFF7C8FF54F8101CAD
:1016B00039B902B010BD51F80C3C1A4492B2012362
:1016C000E6E734F80C2C0020EDE700007FB5013090
:1016D000002380B2CDE90101CDE904336946044B12
:1016E000009304200392FFF7C9FF07B05DF804FBE5
:1016F000920100200D4AD2F82838A3F17E63A3F5A9
:101700008433B3F5104F10B50FD2EFF3108072B6DB
:10171000074B197800241C70FFF78CFF29B1D2F811
:101720002838BDE810401B6A184710BD0000E10FC3
:101730008D0D002001282DE9F34740F03E818B8874
:10174000012B40F03C810B681C7814BB9E4B9F4DD5
:101750001C609F4B1C609F4B1C609F4B1C609F4BF1
:101760001C609F4B1C709F4B1C609F4B1C602B7818
:10177000022B01D1FFF7BEFF9C4A01232B700023EF
:1017800013709B4A13709B4A1370204602B0BDE849
:10179000F087032C40F0FF80964B8C4E1C78002C79
:1017A00040F08D803378002B00F0E9808C4B1B7863
:1017B000082B40F08780DFF81082D8F8000090B93D
:1017C0008D4DD5F82838A3F17E63A3F58433B3F5A6
:1017D000104F55D34FF4017041F20804A0420CBFE2
:1017E000862480246BE010F003071ABFC7F10407BA
:1017F000FFB2274600EB070ABAF5806F00F2C580FA
:101800007E4BDFF8E0913A46FF21184407F096FC42
:101810007B4AD9F800301268C8F800A00AEB03012F
:10182000914200F2B6806A4A15681D445544DFF8BB
:10183000ACA125F4FF65DAF8000025F00705854224
:1018400007D9291A00F50060FEF75EFDB0B9CAF8A5
:101850000050D8F80010D9F80000FEF7F9FFD9F8C9
:101860000030D8F80020584913440546DB1B634874
:10187000C9F80030FFF70CFA002DA1D085241EE036
:10188000FEF7A8FF0028A7D1D5F828280190A2F1DB
:101890007E63A3F58433B3F5104FEFD2126BA2F140
:1018A0007E63A3F58433B3F5104FE7D2936901212A
:1018B00001A898470028E1D14D4B01221A7000235E
:1018C000337062E7002B5CD0484B1B78002B5AD05A
:1018D000454F3B6843B9404B4A4918681022FEF710
:1018E000F5FC0028EBD0C9E713F003021CBFC2F1DE
:1018F0000402D2B29D18B5F5806F46D84248DFF891
:10190000D480FF21184407F019FC404A404B41495C
:101910003D609B1A404A1344D8F800200B40934284
:1019200035D8FEF70BFD1544A0F58050854230D820
:101930003D68DFF8A8902A44D9F8000002EA0105C2
:10194000854208D9291A00F50060FEF7DDFC002861
:1019500094D1C9F800503A682B49D8F80000FEF736
:10196000B5FCD8F800303A681F49054613442648AC
:10197000C8F80030FFF78CF9002DACD07EE7812449
:101980009DE784249BE7802499E7822497E78724B6
:1019900095E7832493E7042C13D1204813230221D5
:1019A00043700170FEF7F6FF1D4A1E4B1289053287
:1019B0009A801D4A1A6042789A710024E5E60D2447
:1019C000E3E60624E1E600BF340B00203A0B0020DA
:1019D000701200203C0B0020C00D0020C811002018
:1019E0008C010020400B0020C4110020380B002087
:1019F00099010020390B00200000E10F340700207E
:101A000074120020B00D0020C40D00201000002032
:101A1000C400002000F8FFFF8FBC0000A40D0020D0
:101A200084060020900D0020452500000D4AD2F8C4
:101A30002838A3F17E63A3F58433B3F5104F10B5B6
:101A40000FD2EFF3108072B6074B197801241C7087
:101A5000FFF7F0FD29B9D2F82838BDE81040DB695E
:101A6000184710BD0000E10F8D0D00202DE9F04F4B
:101A7000012891B004D00024204611B0BDE8F08FB9
:101A80008A88002A00F0D981AA4F97F800A0BAF1FD
:101A9000000F00F0D481A84D2C78002CECD1DFF899
:101AA000CCB29BF80040002CE5D1A44E306802EB8C
:101AB0000009B9F5806F02D982242C70DCE7DFF8C9
:101AC00098820968404407F02BFBBAF1020FC6F870
:101AD00000903CD0B9F1030FCDD99948FEF7AEFB89
:101AE0000378D8F80020012B47D14368190E01294B
:101AF00003D1C3F307430A2B47D9924B9A4240F0D4
:101B0000E8808368DA033ED502233B70FFF78EFF3F
:101B10008D4BD3F82828A2F17E63A3F58433B3F567
:101B2000104F0BD2126BA2F17E63A3F58433B3F591
:101B3000104F03D2936809A900209847834B099A54
:101B40001A60834B0A9A1A603B78022B93D1DFF814
:101B500020A233689AF80020082A4CD1DFF80082CE
:101B60007B49D8F80000096803F00309C218A2EB0A
:101B700009028A420BD983249FE7724CA2420CBF10
:101B80008624842499E7862497E7882495E76F4A7A
:101B900017681F4407446F4BA7EB0907186827F421
:101BA000FF6727F00707874209D9391A00F5006057
:101BB000FEF7AAFB674B08B185247EE71F603168FA
:101BC000D8F80000A1EB0901FEF742FE3268D8F810
:101BD00000305A49A2EB0902074613445E48C8F890
:101BE0000030FFF755F8002FE6D19AF80030002BAF
:101BF0007FF441AF01E0002A6DD133687F2B7FF67F
:101C00003AAFDFF86081D8F8000028BB4E4BD3F81C
:101C10002838A3F17E63A3F58433B3F5104F15D2B2
:101C20000123CDE90A0009A88DF82430FEF706FB50
:101C30000A9B1A0E7BD0012A03D1C3F307430A2B58
:101C400075D9414BD3F828389B6B9847434B1860A4
:101C500007F07CFAC8F800003B4FD7F82828A2F11B
:101C60007E63A3F58433B3F5104FA5D2936A3B4A44
:101C7000D8F800001168984700289DD1D7F8283877
:101C8000A3F17E63A3F58433B3F5104F21D2012372
:101C9000CDE9070032688DF8183006A8D8F8009012
:101CA0000392FEF7CBFA079B190E12D00129039A73
:101CB00003D1C3F307430A2B0BD9234B05A9D3F850
:101CC000283800915F6B244909AB4846B847002883
:101CD00050D08424F1E622490A681A440A601A4A5C
:101CE000D2F82818A1F17E62A2F58432B2F5104F25
:101CF00013D21C48CF6A184A1B490068B8470746E8
:101D000032680E491448FEF7C3FF40F203239F4296
:101D100006D101238BF80030AEE640F20227EFE750
:101D200040F201239F423FF460AF8024C5E64FF4A8
:101D3000C0708BE73A0B0020390B0020340B0020D9
:101D4000B0010020EB17A6030000E10F7012002085
:101D500074120020C811002034070020580B002006
:101D6000400B0020540B0020440B0020380B0020B7
:101D70008C0100209DF824308AF800300393FEF790
:101D800007FB039B074648B3D0F83490002B3FF481
:101D900073AE0022069204228DF8132006A90DF1DD
:101DA000130235200393FFF7DDF9069AD30719D5FF
:101DB000039B082B14D0B9F1000F42D04B461022E0
:101DC0000CA903F12800039307F0C8F920B9039B7D
:101DD0000A9A1B6A9A4205D889246EE68146D5E79D
:101DE000364BECE797B14FF400613846FEF78CFABA
:101DF00000287FF4E1AE29F4FF604FF4006120F089
:101E00000700FEF781FA00287FF4D6AE9AF800307A
:101E1000082B18D12A4B2B4A186820F4FF6323F0B3
:101E200007034FF400611360FEF76EFA00283FF4D9
:101E300023AEC1E640F202272FE00D241CE68124E8
:101E40001AE6002FCFD1204F204BDFF890907B6017
:101E5000D9F82828A2F17E63A3F58433B3F5104F97
:101E6000BFF4AAAE936A1A4AD8F8000011689847DE
:101E700000287FF4A1AED9F82828A2F17E63A3F54B
:101E80008433B3F5104FD5D2D2F82C903368114A71
:101E9000D8F800003946C847074632680E490D4851
:101EA000FEF7F6FE40F203239F423FF432AF40F2CA
:101EB00001239F423FF4E0AD37E700BFD09300001D
:101EC00070120020C8110020440B0020A90C000053
:101ED000580B002034070020340B00200000E10FD5
:101EE00008B50F4B0F4C1B784FF000556BB1FFF747
:101EF0009DFD0D4B2B600123A360236823F4E06359
:101F000043F480632360FEF75FF92B600123A36035
:101F1000236823F4E06343F480632360FEF754F9FD
:101F20009901002000500E4002020FF010B5164C2F
:101F3000A37E5B0626D4FEF7ADFFA18C226840F29B
:101F4000E24303FB01222260A37A94F84F2013445A
:101F50002522B3FBF2F002FB10332289A372013277
:101F6000636822810A2202FB01336360238B5A1EBD
:101F700022833BB9A27E42F04002A276034A13704C
:101F8000FFF7AEFF10BD00BF84060020E006002072
:101F9000F0B5254CA37E5A0687B040D4234A218948
:101FA00023F0070343F00103A37613681BB1928863
:101FB0008A4200D19847A37A1D48234493F82A30D7
:101FC0006375FEF71DFFD4E900561A4C1A4A636880
:101FD0005B7A7708D15C0191A5EB56060120FEF7EC
:101FE00039FF643502964FF4807300260199ADF8ED
:101FF00014303D4402AA2068049533468DF80C60E5
:102000008DF8166001F0BAFA0122054631462068C3
:1020100001F0F6FD2DB1FFF789FFFFF7B9FF07B01B
:10202000F0BD064B2361FAE784060020900D0020E6
:1020300090060020CC11002039940000A921000056
:1020400002282DE9F0411DD002D8012807D0FEE773
:10205000032800F09E80FF2800F09B80F7E74E4C9D
:10206000637C990707D5FEF715FFFEF771FF637CC8
:102070006FF341036374637CDA0768D4BDE8F04111
:10208000FEF766BF4B78DB0740F183804C6822780F
:1020900002F00F08B8F1030F5BD0B8F1050F78D14B
:1020A0003E498B7B03F00103B3EBD21F4FD10622D5
:1020B000083104F1080007F051F80646002846D11F
:1020C000FEF7E8FEFEF7F0FE354D314607465C228E
:1020D000284607F033F8AB7EA5F8188043F02003BC
:1020E000AB76627E237E43EA0223AB84627F237F4A
:1020F00043EA0223EB8494F82330C3F3040385F806
:102100004F3094F82330C3F3421385F8503004F174
:102110001E001B232B85FEF791F9D4F80E30E27CCC
:10212000EB60A37C2F6043EA0223227D607D43EABB
:1021300002432B61012695F84F30AB722E75E18A70
:102140003144FEF7B7F9FFF723FF164B1E70BDE8C9
:10215000F081124DAB7B03F00103B3EBD21FF6D13C
:10216000062205F1080104F1080006F0F7FF002837
:10217000EDD1094C286894F83D204FF400730232E9
:1021800004F13C0101F018FD637C43F00203637429
:10219000DDE7FEF77FFE71E7E4000020CC110020B0
:1021A00084060020E006002002282DE9F34780463F
:1021B0000C460BD003D8012800F0AE81FEE70328BF
:1021C00000F0B081FF2800F0AD81F7E74B78AB4D10
:1021D00013F0010300F0BC804A68AF7E117892F8DA
:1021E0000090C1F3001161F38207AF76C9F3C0011B
:1021F000C7F30017B94240F0A88009F00301022993
:1022000000F0A180032918D0012940F09E804FF0F2
:10221000000A567896B19A48818AFEF795F90B1A0A
:102220009BB2BAF1000F04D0022B86BF023B9BB2D7
:1022300000239E428CBF002301231E46A97EC9F3C2
:102240008009C1F3C002914508D082F00102D2009A
:1022500042F0200221F028010A43AA762BB1AB7E7E
:1022600087F0010767F30413AB76AB7E854F13F05D
:10227000200F11D0696D6FF34513AB76002969D03B
:102280003B7895F858207A7043F003033B70B81CF4
:1022900006F046FF00236B657B487A49FEF754F948
:1022A000AB7E003818BF012060F34103C3F3C002C6
:1022B000AB76C3F300139B0043EAC20343EA00106A
:1022C0003B787A7823F01C03184338706F4F023242
:1022D0004FF400733868D2B201F06EFCAB7E6468D4
:1022E000D90709D56FF30003AB7600236B60FEF7C7
:1022F000DBFD2860FEF7F2F8002E00F0A1802378C5
:1023000003F00303022B05D0032B3DD0012B40F03B
:10231000978000265A486578818AFEF715F9081AD1
:1023200080B226B1022886BF023880B200208542E2
:10233000ABB200F285805248A21C314602B0BDE823
:10234000F047FEF7E5BB9A4663E70026334675E79C
:102350001E468AE795F828304B48BA1C0DF1070154
:10236000FEF773FB10F0FF000BD09DF80730002B39
:1023700008BF4FF001083B78787068F301033B70A9
:102380008AE74FF00108F6E7A3780C2B0AD80C2B4C
:102390000AD8DFE803F03F2B580909090909600949
:1023A00009091800142B7FD0394A12782AB1162B4C
:1023B00000F09680182B00F0A280364807220270A9
:1023C000437002210DE033480C234FF0FF320370BD
:1023D000012343708270037102220023C270437193
:1023E000062102B0BDE8F047FEF7D4BA617A237A3D
:1023F000294A43EA012393801346284943F8061BE0
:10240000D4F80310C2F80610B4F807209A80627A54
:102410009A7115E0627B237B1F4943EA02238B807C
:102420000B461F4A43F8062BD4F80320C1F80620B8
:10243000D4F807205A60B4F80B201A81627B9A7294
:1024400002B0BDE8F0872A89134B05329A80154AFD
:102450001A60E278DCE7D4F803303A8C0D48134078
:1024600003F0FF0322F0FF0213430246092102F8A2
:10247000011BC0F8013000235360B2E7840600203E
:102480005C0B00207C120020740C0020CC1100207A
:102490008C0D0020A40D0020900D0020A104000050
:1024A0001905000045250000B4F80530B4F80320F4
:1024B0002048DB08934228BF13462B8515230021B3
:1024C0006FF004046FF0270203700723817081719D
:1024D0004470C27003714471C2710372092180E7B4
:1024E0002279E3781348134003F00303022B18BF4B
:1024F00001231722027043708370032171E7627910
:10250000A1790D4B42EA01229A800C4A1A60D4F854
:102510000320C3F8062093E7094B9B7E9A078FD4CC
:102520005B078DD4FFF702FD02B0BDE8F047FFF76F
:102530002FBD00BFA40D0020900D00202504000039
:1025400084060020054A08B5937E43F04003937645
:10255000034B00221A70FFF7C3FC00BF8406002063
:10256000E0060020EFF3108072B67047FFF762B804
:10257000064A074BD3F88039136F23F0070318433B
:10258000044B10671888FEF7BFB800BF00300E403C
:102590000000C643000700202DE98048774B5B68A8
:1025A0005A05A5B01BD44FF0005300221A601CA896
:1025B000FDF744FEFDF7ECFEC0B1446BFFF736FAC1
:1025C0001E9B5B0740F1AF80FDF7E2FEFDF76EFE5C
:1025D0000446FFF78FF8002C40F0BC8006E04FF077
:1025E00000531A68022ADED100221A60BFF34F8F0F
:1025F000BFF36F8F624B634C5A6A634F634922F497
:1026000080325A62D3F8942022F00102C3F8942059
:102610002068C3F898004FF00052C3F89C20451C76
:102620005B4AC3F8A0208F42256050D07E1E731AEB
:1026300043EA530343EA930343EA131343EA13239E
:1026400043EA13430133B3F5807F38BF4FF48073FF
:10265000C3F1000C0CEA010C03EB0C02974200F2F0
:102660008A80072BA2EB07024FF001078CBF4FEACD
:10267000D30E4FF0200EB2FBFEF207FA02F2013A3F
:10268000D2B2A6EB0C06A1EB0C01B6FBFEF6B1FB39
:10269000FEFE3E4407FA0EF7013FB240B3FA83F361
:1026A0003A4302F0FF07C3F11E02520002F03E025D
:1026B00042EA0722324B42F0407242F001120230ED
:1026C000C3F89850C3F89CC0C3F8A0202060BFF3A3
:1026D0004F8FBFF36F8F2A4B0522C3F894205A6A9D
:1026E00042F480325A62BFF34F8FBFF36F8F294B92
:1026F00001225A64284BD3F8FC20284B120E4FD1EC
:102700004AF6E851C3F89011D3F8981141F004014A
:10271000C3F89811C3F89021D3F8642142F4005211
:10272000C3F864213EE014B9FEF7E4FF5EE7FDF76D
:1027300005FE8442F8D2FDF701FE04F14003834216
:10274000F2D82046FDF702FE0028EDD063696BB990
:10275000FEF7D0FFFDF71CFE0446FDF719FE084BFF
:10276000986023689D46636898473FE79DF87030FE
:10277000012BEDD128E75B006AE700BF00500E4057
:1027800000ED00E00C120020BC000020BC00002086
:102790003900011300000E400081E00F00300E40B0
:1027A000012AB9D0B94A136A23F4441343F48813B5
:1027B0001362A2F58042136843F480731360B44B34
:1027C000D3F8A42142F4F842C3F8A42102229A6368
:1027D0009A6B02F00F02022A40F0EC80DA6C22F0D1
:1027E000405222F0010242F00102DA64D3F8EC20F8
:1027F00042F44072C3F8EC20A64A0F211180DA6E31
:1028000042F08072DA66A44BD3F8800900B104204C
:10281000FFF7AEFEA14B9E4DC8221A80A04BA0220E
:102820000F2000241A80FDF76FFF9E4BAB65CDE9AA
:102830001444CDE91C449C4BD3F81832C3F307224F
:10284000DBB21E921693EE6CC6F301762246334637
:102850001CA914A8FDF70EFFD5F8EC50C5F301250F
:1028600022462B461DA915A8FDF704FF1E98169BAE
:102870004FF41672C11A5143B1FBF2F29B1828BFF4
:1028800001249842C0F09680002C40F093801D9A5D
:10289000159C4FF41677101B7843B0FBF7F0241803
:1028A0002CBF01210021A242C0F08480002940F009
:1028B00081801C981499421A7A43B2FBF7F2891866
:1028C0002CBF01220022884274D3002A72D17048A2
:1028D000C26D22F4FE4222F0020242EA0322724B4F
:1028E000C265022ED3F8302200F0FC80032E00F0E7
:1028F000FC80012E14BFD2B2C2F30722120312F4DD
:10290000702F57D16248C36E23F470431A43664B4D
:10291000C266022DD3F8302200F0E980032D00F0CA
:10292000E980012D14BFD2B2C2F30722120312F4C0
:10293000702F3FD1564BD3F8EC0020F47040024387
:10294000C3F8EC205A6EA14238BF2146E72922F491
:10295000FF7228BFE72122F0010242EA41025A66D3
:10296000DA6B42F48062DA634AF6E852596B5A63D2
:102970009A6FD707FCD41B6C474A13F0030300F08F
:10298000E5840123C2F8B43A414B9A6FD607FCD4D0
:102990001A6C22F003021A649A6F12F00102FBD142
:1029A0003D480129C0F8B42A08BF5A633A4B0122B6
:1029B000C3F89427354C3D4E1120FEF75FFC0021F3
:1029C00001220220FEF7B8FC636A23F00103636270
:1029D000374B0025C3F8A054A36A23F0070343F044
:1029E0000603A362334BE362226B334B02F07F6238
:1029F00013432363314B636304211120FEF73EFD33
:102A0000234B304601211B68FEF71CFBFDF7D4FD6C
:102A100001463046FDF720FED4F80001C0F3042043
:102A20000130B6FBF0F0FDF7D1FD01221146022086
:102A3000FEF782FC636A224E43F040536362D4F88F
:102A4000C83043F00103C4F8C830174BD3F8D8306E
:102A5000B365042406AA08A935208DF81840089506
:102A6000FEF780FB089A8DF81640062312F4803F8B
:102A70008DF8173009AC40F095820DF11702214610
:102A80002C20FEF76FFB002849D01BE000400E40D1
:102A900000300E40000700200000C643020700205F
:102AA00004070020372110B70081E00F00F0490231
:102AB0000000C8432000050007450BD047A00200D6
:102AC000005008400DF1160207A93C20FEF74AFB12
:102AD00018B19DF81C0000F001009DF82A3060F349
:102AE000000318E0C2F3074208E7120E06E7C2F33C
:102AF00007421BE7120E19E7B16D02F8011B013BFB
:102B0000FAD29DF8293063F03F038DF829309DF803
:102B10002A3043F001038DF82A30BF4B5C60BF4B75
:102B2000BF4A9A6000244FF48071C3E900225961C2
:102B30001C82BC4BBC4A5961BC489A60C3E9002264
:102B40001C8200F045FCBA48BA4B03602146BA4BE0
:102B5000436000F0C3FCAEA3D3E90023B74EB84DE9
:102B60003060CDE900234FF0FF334FF0FF3200F02B
:102B7000D3FF02224FF0FF31306800F0CFFF0DF19C
:102B8000700A3C239422CDE91C321E9351469623B1
:102B900030682294CDE920441F9300F089FD30680D
:102BA0002C70294600F0E2FF28B1012330682B7019
:102BB000294600F0DBFF984C3068DFF81C9301F0E9
:102BC0005CF8B4F900202978306800F011FC014667
:102BD000306800F0B8FF6468002C40F0E58148469A
:102BE000FDF7C0FCB37B64F30003B373954B964CC5
:102BF000964DDFF8E882202783F801735C2283F882
:102C00000473002183F8067304F1080083F8077346
:102C100083F8057383F8087383F81D7306F08EFA42
:102C200042F21073E3608A4B8A4AC4E9005342F2CD
:102C3000015323814FF49073338401231370864D25
:102C40008DF814300022C8F800201B222A800DF1D4
:102C5000150105AA3E20FEF785FA11230DF1130296
:102C60000FA936208DF81330FEF77CFA0DF1120211
:102C7000514639208DF81270FEF774FA90BB774BED
:102C80009DF8132018681B791C908AF80430002ADC
:102C900000F093811B2A28BF1B22531D8DF8123090
:102CA0000FA9531C0DF175008DF8733006F038FA3A
:102CB00014A8FDF757FC6A4A9DF8123012882AF8CA
:102CC000032024A99A1C51FA82F20021149802F8D8
:102CD000201C0933BDF8541042F81F0C22F81B1CAD
:102CE0008DF8123020230DF1110214A93A208DF82D
:102CF0001130FEF737FA48B95A4B5A8B1B7F8DF8C3
:102D000052300323ADF850208DF81130564B574800
:102D100000220227C3E90022554B03600771FDF72B
:102D200029FE5448544B0360102303720771FDF7CA
:102D300027FF5248524B0360524B0771C360077222
:102D40000782CDE900373B4690E806001430FDF7D6
:102D5000A5FD9DF81310002900F03A810FA8FDF79A
:102D600039FF4948494B036010270771FDF702FE00
:102D70004748484B484A03604FF6FE7B08230372DE
:102D8000C260A0F810B00771FDF7FAFE4348444A4C
:102D900002600C220272434AC260A0F810B00771B0
:102DA000FDF7EEFE4048414A02604FF0020B404AF8
:102DB000C26008230382077180F808B0FDF7E0FEC7
:102DC0003C483D4B03603D4BC360012303820771C8
:102DD00080F808B0FDF7D4FE39483A4B03603A4B0F
:102DE000C3604FF6FE730382077180F808B0FDF7E9
:102DF000C7FE3648364B0360364BC3604FF6FE7352
:102E00000382077180F808B0FDF7BAFE68E000BFE2
:102E100008550051000000009C010020740C0020A7
:102E20008C0C00205C0B0020740B002074940000BC
:102E3000FC110020D10E0000F0110020CC11002068
:102E40001400002000E100E0E4000020D6BE898EDE
:102E5000555555008C0D00208E010020E592000094
:102E6000EF92000078930000E4060020301200206A
:102E7000F292000024050020F592000008070020CF
:102E8000F89200009693000050120020FB92000080
:102E90007C0500200C93000035170000D4050020AD
:102EA0001D9300006D1A00001C0400202E930000EA
:102EB000C89300002C0600203F93000038940000C7
:102EC000740400205093000091020000C40300200D
:102ED00061930000A9090000D4110020C003002064
:102EE000B14BB24A1A604FF6FF729A809DF81220D9
:102EF000202A05D8931DAE486375514606F010F997
:102F00009DF81120202A06D8931DAA4884F83D3048
:102F100014A906F005F9FDF7BDFF227C617CB2FA29
:102F200082F35B0963F30001237D617462F30303A1
:102F3000B27B02F0010262F386132375637D0BB945
:102F4000062363759C4BB9F80410B068C4F81600EA
:102F5000998094F83C30042161F3030362F38613F3
:102F600084F83C3094F83D3013B9062384F83D30A2
:102F7000924BB068B9F80420C4F83E009A80FDF77F
:102F8000E7FF8F4E8F4B1B782BB1DFF848924846F6
:102F9000FDF7DAFAF8B98C4A136923F004031361D8
:102FA00030BFEFE72246AAE52068B060A288A37987
:102FB00089F80630A9F8042018E608238DF81230A5
:102FC000824B1A889B78ADF875208DF877306FE6C4
:102FD0007E480321C3E6EFF3108472B600231A463D
:102FE0000DF119014846FDF730FD2046FEF722FBA2
:102FF0009DF8193013B10023C8F80030D8F800202C
:10300000EFF3108472B6C2F501739BB232440DF136
:1030100019014846FDF719FD03462046FEF70AFB55
:10302000D8F8000018440328C8F80000AFD9348845
:10303000231D9842ABD307D8708804284FF00003B3
:1030400006D0062800F078810023C8F800309EE7FB
:1030500032796B8004F1FF3A122A1FFA8AFA18D8E3
:10306000012A19D9931E5A4F102B15D8DFE813F0F7
:10307000160014002C00140046001400F100140087
:103080007A00140014001400140014001E0114002F
:10309000C400522A00F0CA800622A4E0BAF1020F4E
:1030A00040F04881B6F805400022B4F5007F28BF03
:1030B0004FF400740323114650463B70A7F80140BB
:1030C000FEF704FB2C80BFE7BAF1040F40F08B80C1
:1030D000B6F80540A0B2FDF789F860B1027A7C80AD
:1030E000022A4FF005010CBF012302233970416809
:1030F0007B70032055E06C800A2274E0073CDFF807
:10310000D8B0CDF800B0A4B20194B6F80710B6F864
:1031100005000223ABF10202FDF77CFD4FF6FF7ABA
:103120005045044604D17368C3F30F236B80E3E773
:1031300000230130CDE90033ABF1020202235146F6
:1031400080B2FDF767FD50451CBF00F1FF3080B233
:1031500007233B70A7F80140A7F80300002211469F
:1031600004201EE0BAF1020F40F0E480B6F805003A
:10317000FDF73CF8002855D0037B99072ED52B8806
:10318000013BADF81A300DF11A02B6F805000BA993
:10319000FDF7DEFB024610BB0B23BDF81A200B998E
:1031A0003B70FEF793FA4FE7EC060020E4060020A0
:1031B0000001002028010020FA0000202201002048
:1031C000BC010020E006002000ED00E0EB920000D2
:1031D000920100205C0B0020C7010020524673685A
:1031E000C3F30F236B805B4B3079698858700124DF
:1031F0001C7059801A71B1E7B6F80500FCF7F6FFAC
:1032000080B1037B1A070FD5E21E92B25249B6F87D
:103210000500FDF767FB02460028E0D113233B7051
:103220000146BEE70122DAE70322D8E7B6F8050037
:10323000FCF7DCFF00283FF407AF037B5B077FF55B
:1032400003AFE21E4449B6F8050092B2FDF74AFB0F
:10325000FAE6631F9BB2022B01D0102B6AD1002229
:10326000CDE90022DBB23D4AB6F80710B6F80500FA
:10327000FDF7D0FC4FF6FF73984204463FF453AF7E
:103280002B880DF11A02043B0BA9ADF81A30FDF79B
:103290005FFB024608B16C80A5E7BDF81A200B99C8
:1032A0007C8009233B70931C7B7022E7631F9BB2D9
:1032B000022B01D0102B3DD14FF0000ACDE900AA1E
:1032C000DBB20393254AB6F80710B6F80500FDF700
:1032D000A1FC4FF6FF7B5845039B04463FF423AF08
:1032E0000130CDE900AA1D4A594680B2FDF792FC93
:1032F0002B8858458246A3F1060318BF00F1FF3A18
:103300000DF11A020BA9204618BF1FFA8AFAADF870
:103310001A30FDF71DFB02460028BCD1BDF81A206B
:103320000B997C8011233B70131D7B70A7F804A0C0
:10333000052036E7042256E7CDE90D33084B0B9301
:103340000BA902230C93FEF799F97DE6C2F8B43A73
:10335000FFF72CBB92010020C3010020C501002013
:10336000110000200D4AD2F8E430D2F8E0109B00A2
:1033700003F03C03C1F381110B438370D2F8E030BA
:1033800003F03F034370D2F8E830D2F8EC2003F0AA
:10339000F003C2F3031213430370704700FF0FE002
:1033A000FEE7000008B5FDF779FE064B0649074A1F
:1033B0008B4201D3FCF7CEFE52F8040B43F8040B0A
:1033C000F6E700BF10000020C400002050B4000049
:1033D00038B5044600F0DBFB0FCC044D0FC594E874
:1033E0000F0085E80F00002038BD00BF7C130020CF
:1033F00047F6FF739A42F0B569D0022969D8364B77
:1034000003EBC105CF00A87813F83110012838BFAD
:1034100001200129044613D1EB781B1A00209842A1
:1034200002D3E018C0B2F0BD191AA3EB51016E68C7
:1034300036F911609642CCBF01F1FF330846EEE742
:1034400068680028EFD0B0F90010914204DBB0F9B1
:1034500002109142B8BF114682883B44FF2A08BF40
:10346000B0F906205F7807BFB0F908600125002594
:10347000C82207F1FF3318BF2826521A92FBF6F232
:103480002A44934228BF134600EBC3054FF47A7ECB
:10349000AE68EA8811FB02621E46013322EAE2723C
:1034A0009F4202F5FA72AC46B2FBFEF205D9BCF8B7
:1034B0000CC0944505F10805EAD200EBC6008088EF
:1034C000904228BF1046A04238BF2046AAE7FF20FE
:1034D000A9E70020A7E700BF7C130020F8B50D4640
:1034E00010B900242046F8BD0E4F3E68002EF8D1DA
:1034F00000F082F804460028F3D0386000F0B0F8FD
:10350000204600F0A2F838B130463E6000F0A8F83E
:10351000204600F095F8E4E7002DE3D02046A847C8
:10352000E0E700BF9C1300200846114600F0AAB84F
:10353000F7B5114D04466E680F4600200121CDE914
:103540000032B047DDE9003206463946204604F035
:1035500049FD044618B92B680120984704463EB13E
:1035600000F0C6FB00B91CB100216B680846984703
:10357000204603B0F0BD00BF28000020F7B5104D75
:10358000019204466B680F46002001219847019A7A
:1035900006463946204600F0C3FA044618B92B689F
:1035A0000120984704463EB100F0A2FB00B91CB1CF
:1035B00000216B6808469847204603B0F0BD00BF65
:1035C0002800002070470000431E033306D8044B38
:1035D000984228BF1846642838BF6420704700BF4F
:1035E00040420F00431E012B03D9031F584258418C
:1035F0007047012070470000F8B50546FDF7E6FC6E
:103600000E4B1E68074626B93846FEF713F83446B7
:1036100010E0B46884B1237C9C46DB070CD495E8A9
:103620000F004CF0010C84E80F0084F810C03846FD
:10363000FEF700F82046F8BD3668E4E71C000020DD
:103640004FF4A472002105F079BD10B500210446A5
:1036500000F077FA2046BDE8104004F00FBB0000F0
:1036600010B5044618B9054B054A136010BD03F0A8
:10367000C7FCD4F89430002BF6D1F4E7C535000030
:103680002000002010B50C4603F0D0FC1CB103F064
:1036900023FD0128FBD1034BBDE810405B680021EE
:1036A000032018472800002003F02CBE03F040BE82
:1036B00008B502460868FFF787FF08604868FFF70B
:1036C00083FF48608868FFF77FFF8860C868FFF75E
:1036D0007BFF0B69C860581C03D00B48834228BF8E
:1036E00003460B614B69581C03D00748834228BF2F
:1036F000034688694B61FFF767FFBDE808408861B2
:10370000104604F011BB00BF40420F002DE9F84FF6
:10371000D0F88C3007460E4613B1038B8B4246D04F
:10372000D7F888B0BBF1000F44D0DBF80830002B8D
:1037300040D0DBF80C20002A3CD0D7F89CA0BAF18E
:10374000000F3AD04FF000094D46C84601E0DBF8C3
:103750000830C5EBC50403EB84040135E389B342AB
:1037600016D8238AB342384612D3B4F91230B7F9C7
:1037700024109942A04603EAE37250DD97F8D41072
:10378000FFF736FE7B7D8342814648D9DBF80C206B
:103790009542DCD3B8F1000F29D0002342461946E8
:1037A0003846D0473E83C7F88C8087F8DD900020EC
:1037B000BDE8F88F0320BDE8F88FD1465446514646
:1037C00047F6FF75C4EBC40803EB8808B8F80E3061
:1037D000B3421AD8B8F81030B34216D3B8F9122051
:1037E000AA4202EAE27204D14FF0FF09DAE70120AF
:1037F000DEE797F8D4103846FFF7FAFD7B7D834269
:1038000081464146CED9DBF80C200134A24202D9D0
:10381000DBF80830D6E70029E9D08846C2E7A046A1
:10382000BBE700BF2DE9F041D0F89C8082B0044690
:103830001E460D4617468DF80730B8F1000F2ED002
:1038400000220DF107031146C0471A491A4A0D60BC
:103850001A4BD4F8881011602046D4F88C201A60D6
:1038600003F0B0FE05461FB9284602B0BDE8F0815E
:10387000B0FA80F040F20D323321400900F0D8F95F
:103880003146204604F044F90D4BD4F88C101B68E7
:10389000054620469847284602B0BDE8F081417DA4
:1038A00090F8DD30994228BF1946324603F01FFEDA
:1038B000CBE700BFA0130020A4130020A813002012
:1038C000200000202DE9F04383B005460E46144643
:1038D0001F4604F094FB04F09BFB00283CD1DFF86A
:1038E0001481D8F800301BB1D5F88820934220D03D
:1038F00003F0F2FB01283FD1D8F80030002B37D07D
:103900001A68002A34D0D5F8881009688A4245D050
:10391000D5F88C301A68284604F0EEF828BB01244C
:103920003B4622463146284603B0BDE8F043FFF748
:1039300079BF2D4B1B68002BDAD0D5F88C20934231
:10394000D6D12A4B1B689E420CD003F0C5FB012840
:10395000E6D04FF0010911E0234B00221A6004F079
:103960004FFBBCE707B124BB002003B0BDE8F083E8
:10397000D5F888301968CBE74FF00009012003F033
:1039800055FB03F0A9FB0128FBD1194B00215B6813
:1039900003209847B9F1000FAED0C1E7124A126870
:1039A000A2B11168D5F88C2012689142B7D059683D
:1039B000B1E7D5F89C4001228DF8072054B10022D0
:1039C0000DF1070311462846A047CDE7D5F88C2016
:1039D0001268ECE7697D95F8DD30994228BF1946F9
:1039E000284603F084FDBFE7A8130020A0130020A1
:1039F00028000020A4130020F8B505460E46FDF768
:103A0000E5FA314607462846FFF780FE044620B116
:103A10003846FDF70FFE2046F8BD03460246314604
:103A20002846FFF74FFF04463846FDF703FE2046C1
:103A3000F8BD00BFF8B506460C4659B30B6843B154
:103A40001B68013326D0CB681BB18B68003B18BFC5
:103A500001231846CB22412100F0EAF8204600F06D
:103A600086FC002386F8E030C6E92243E7684FF67B
:103A7000FF724FF01C0CD8B287420DD815460C4A85
:103A8000002313600B4A294630461360FFF7B4FF4A
:103A90002846F8BD0023DCE7A1680CFB0011CD89A6
:103AA000954202D2002DEAD02A460133E3E700BF57
:103AB000A4130020A8130020008B70470A7838B5A3
:103AC00005461046FFF78EFD60B14C782046FFF7A3
:103AD00089FD38B12243530704D42846BDE8384055
:103AE00003F042BC012038BDFFF7E8BF10B5044623
:103AF0000878FFF777FD58B14A781046FFF772FD56
:103B000030B1042A04D02046BDE8104003F064BC64
:103B1000012010BDFFF7EABF03F032BA03F07EBB0D
:103B200037B504460D460192FFF766FF38B9019A92
:103B30002946204603B0BDE8304003F057BB03B030
:103B400030BD04F06DBA13B504460020019100F0B9
:103B50000CFCD4F89C3033B90199204602B0BDE882
:103B6000104003F0FABC022002B010BD38B5044684
:103B700048880D4600F0F9FBD4F89C302BB9294653
:103B80002046BDE8384003F071BC022038BD00F08B
:103B9000EDBB38B505460C46FDF718FA296BEB6A04
:103BA0000C402343EB62FDF745FD00200CB90021DA
:103BB00038BD4FF40071FBE703F03BBF03F055BF86
:103BC00007B54FF400730A49ADF806300DF106024F
:103BD000FFF7F4FFBDF80630B3F5007F05D10228EA
:103BE00008BF002003B05DF804FB0120FAE700BF26
:103BF000F81400200846114600F0D6BA03F006BFBC
:103C000038B50446154609B103F04CFF25B12046EE
:103C1000BDE8384003F048BF38BD0000024B1960D2
:103C2000024B1860FEE700BF24000020FC160020B5
:103C300008B550B90548064B01601A60054B1A6873
:103C4000054B1A601868FFF7E9FF08BD2400002043
:103C5000F81600209C130020FC160020837C03B182
:103C600008470220704710B5044604F02FFA20469A
:103C70000321BDE8104003F045BAFFF7F4BF000090
:103C80000149FFF7EBBF00BFA18000000149FFF72A
:103C9000E5BF00BF7580000010B5837C0C4693B172
:103CA0004968002204F01CFA206890FAA0F0000A8B
:103CB00003F0DAFBA17A2089002281F0010104F0EF
:103CC0005BFA002010BD0220FCE71FB5CDE9011210
:103CD000ADF80C3001A99DF818308DF80E30FFF7C3
:103CE000DBFF05B05DF804FB002070470020704743
:103CF000014B1878704700BF001700202DE9F74FDF
:103D000006681C4606F007069DF830300193B31D87
:103D100001269E400546174606F1FF380B46A1B125
:103D2000416804EA080BA6EB0B0A41F00059524522
:103D300009EB0B0118D95246184605F0F1F9BA1BE8
:103D40005A444946504405F0EBF9019B4BB13C44C1
:103D500048EA06063440EC60AB68A3421CBF02236D
:103D6000AB6203B0BDE8F08F1846ECE70D4BD3F81B
:103D7000E020D20314D50C494FF48032C3F8E82078
:103D8000C1F8EC209A6BD1B2C2F3072299679A6707
:103D900004229A6700229A679A679A679A679A67D5
:103DA000704700BF001008400010084638B50C4CA2
:103DB000226060600D46FDF709F9D4F8E0305B073A
:103DC00058BF04234FF00102A262A56058BFC4F897
:103DD000E830FDF72FFC0DB10223A36238BD00BF10
:103DE00000100840044B1860044B40F6FF72196342
:103DF00058635A65704700BF041700200010084040
:103E00002DE9F04F042A83B005463AD90B78836137
:103E10004B7883618B788361CB7883610068D5F8B8
:103E200008B06E6800F007004FF00108063008FA8D
:103E300000F808F1FF3909EA0B07A2F1040AA8EB20
:103E40000702924501F1040446F000560DD8F0191E
:103E50002146524605F064F90AEB0B0348EA0902D1
:103E60001340AB6003B0BDE8F08F2146F01901921A
:103E700005F056F9019AA118AAEB080230463A4417
:103E8000E8E7013A032AEDD8DFE802F00B08050263
:103E900011F8013B836111F8013BAB6111F8013B63
:103EA000AB610B78AB6103B0BDE8F08F37B500258F
:103EB00000951446FFF722FF204603B030BD0000F6
:103EC000402938B514464FF001020DD8084DC5F809
:103ED000B8200A4601460748FFF792FF34B1042391
:103EE000C5F8B830002038BD1046FCE72046FAE798
:103EF000001008409010084010B5FDF767F81B4B04
:103F00001B491C4C01229A65C3F888201A66596621
:103F10000721C3F884102180174C002121804FF421
:103F2000A024C3F8E84003F1C063C3F8EC40134B8E
:103F30001960134BD3F888305C0213D5114B12492A
:103F40001B684FF48004C1F88840596B090609D4F6
:103F500093F8C6300D494FF400148C6113B10C4B2B
:103F6000C3F8F820BDE81040FDF764BB001008401E
:103F7000081700208A170020881700208C170020BF
:103F8000004008409C1300200040084400600844A2
:103F9000006008460D4B07221A800D4B00221A8044
:103FA0000C4BC3F890204FF40052C3F89400C3F8B0
:103FB000B420094AF021116402F10072A0211164B9
:103FC0000122C3F8B820FFF797BF00BF8A1700206F
:103FD0008817002000100840000008442DE9F04137
:103FE0000446A0B1404E414FFCF7F0FF3188404BF2
:103FF00001F07802032C054601F07F0E1A4460D1CF
:10400000D7F800C0BCF1000F03D1FDF713FB03206C
:1040100055E02CF00104386820F00100A04255D191
:1040200000233B6023886FEA43436FEA5343944283
:10403000238040D12F4FDFF8D8C03B88ACF18008F7
:10404000CC18083B9BB202F10801E01A614528BF79
:104050004146082B80B204D9B1F900E0BEF1000F4F
:104060003FDB9478128824493B80C2F30C02C0B233
:10407000CA6304F007043080C866C1F88430FFF7D3
:1040800075FE042C17D11D4B1D4AD3F888301D4BEB
:104090004FF480011B68C2F888105A6B12060AD4CC
:1040A00093F8C630184A4FF4001191611BB1174BB9
:1040B0000122C3F8F8202846FDF7BCFA0020BDE82D
:1040C000F081601E012898BF1446A4E70948734494
:1040D0000088E31A48BF803308389842A2DC28469B
:1040E00093E70A46ADE700BF881700208C17002031
:1040F000081700208A1700200010084000400840E0
:10410000004008449C1300200060084400600846FA
:10411000881700200E480F4A038812880E491A4457
:10412000073A02F078020A4408339BB20380907881
:104130000A4900F007000428C1F8843004D101F5D1
:1041400040514B681B03FCD4054B1A60704700BFFD
:104150008A17002088170020081700200010084048
:104160008C17002010B5054C206828B1C30701D476
:10417000FFF734FF0023236010BD00BF8C17002021
:10418000084B4FF48032C3F8EC2003F17C43C3F8B2
:10419000E420D3F88030C3F30C03782B01D8FFF769
:1041A000E5BD7047001008442DE9F04705460E466E
:1041B000FCF70CFF534B544C1A888146534802F0CD
:1041C0007801032D078802F07F03214417D150485E
:1041D00005688DB9D519073D05F0780525442344B8
:1041E000EB1A48BF8033BB4210DB4846FDF722FA8A
:1041F00000252846BDE8F08725F00105EFE7012DF1
:1042000002D0022DEBD1083F0D46E8E7002E48D042
:104210008D424AD13F4AD76BBFB23E490A6B02F08A
:10422000070A0AF106024FF0010A0AFA02FAD1F867
:104230008020C2F30C029A421FFA8AF847DDB5F9D2
:1042400000302C88002BD0DBAB78C4F30C0408F1D1
:10425000FF3203F00703E41B48EA02021440052B77
:104260003370A4B22BD824B2E04340F2BB32042115
:10427000C00FFFF7DDFC7480EB78337408F1FF3377
:104280001F40254B1B68DA19B260A2B217FA84F4FA
:104290005445CBBFA8EB07080023A6F80480B280E2
:1042A000F3604846FDF7C6F9A3E7A5F10802A2426C
:1042B00038BF05F178021788C7F30C07ADE7174B35
:1042C000DB6C002B0CBF00230623E41ACBE78B6BBF
:1042D000134A08F1FF34DB1B48EA04041C40A1B276
:1042E000536824B259B9C3F30363032B0CBF0823EB
:1042F00000233370D2F8903071801B0ABDE7082389
:10430000F7E700BF88170020081700208A17002051
:104310008C170020001008400417002000000840FF
:1043200000400840431C08D00449D1F83C311B0C24
:104330001B0480B20343C1F83C3170470040084081
:1043400010B5044608680A46FFF7ECFFD4F88C3035
:104350004BB15B693BB11168013104BF6FF00101E2
:10436000116012681A60002010BD704770477422F7
:1043700031210120FFF75CBC38B50D46044600F042
:1043800039FFAC4042F2107364095C436423B0FB14
:10439000F3F0B4FBF0F038BD034B1A689B88026061
:1043A00083800020704700BF360000200F4B02289A
:1043B000D3F8883104D183F40010C0F34050704723
:1043C000012805D113F4400F0CBF012000207047D5
:1043D00050B9074AD2F8D40010F0010005D083F498
:1043E0008000C0F3805070470020704700400E40AE
:1043F0000081E00F0B4B5B88B3F5E16F8BBF5A2355
:10440000C8235022782298428CBF172310230B70A8
:10441000054B1B7823B1904294BF002001207047C8
:1044200018467047360000203400002013B5234B97
:104430001B78032B04463ED00DF10701FFF7DAFF8E
:104440001E2C8CBF1E491F499DF807204FF0010309
:104450008CBF01240024C1F8083170B1194B4DF60E
:104460000171C3F80411120203F1007342F44042D7
:10447000C3F80421144BA3F8D420134991F8D82091
:1044800022F00102024322F0020242EA4402D3B2C5
:104490000E4A81F8D83012786AB9B1F8D420A1F860
:1044A000D62023F0040242EA800323F0080343EA03
:1044B000C40381F8D83002B010BD00BF3600002020
:1044C0000040084600400844001F002192170020C9
:1044D000084B094AD3F88831DB4303F4FE1343F455
:1044E0000053B3FA83F30E33A3EB4313013B137072
:1044F000704700BF00400E403E00002001280CD055
:10450000022802D020B100207047054B1878704770
:10451000034B18780430C0B270470720704700BFC3
:104520003E00002002289ABF014B185CFF20704714
:104530003895000030B51F23B0FBF3F35C1CE5B2E7
:10454000C3EB43134FF0FF34AC40C01AE4430130D7
:10455000E4B2C0B21460086030BD00002DE9F7433A
:10456000404E414F96F800901546404AD2F8C82078
:10457000B9F1010F0446884607EA020706D147EA67
:10458000006788F8000000232B6052E0384A127858
:10459000904228BF1446002B14BF04230023234459
:1045A0000B708CB3013CE4B24FF030632B606A4671
:1045B000204601A9FFF7BEFFDDE900302D4A98F83B
:1045C00000C0127847EA006747EA833747F47F570D
:1045D00047F00807D2B1284A2849B3FA83F3B9F162
:1045E000020F18BF0A46202BC3F11F0012D0135C24
:1045F000D9B22A6822F07F43BCF1000F0CD143F0FE
:10460000306343F00403BFE71D4BCFE7FF214FF0BA
:10461000FF30EEE7FF21ECE7013003D0481EC0B2C7
:10462000FD281BD922F07F4222F0040242F07F4293
:104630002A607288B2F5E16F8CBF5A22C82227F433
:104640007F57944227F008079ABF380A00F47F503A
:1046500043F6C870384303B0BDE8F08343EA016312
:10466000CFE700BF360000203F00C0E0001F002160
:104670003E00002095170020B083E00FB883E00FC4
:104680000400000B73B50446C820FFF7CFFE2C4B87
:104690002C4D1878032801D0FF2C03D1FF2028705F
:1046A00002B070BD01282CD1072C204628BF07205E
:1046B00001284FF0000301AA0DF1030138BF0120CA
:1046C000FFF74CFF0446204B204E019AC3F85821B7
:1046D000C6F8C8409DF803002870FFF7A7FE019AAE
:1046E000130203F4E06343EA1263194AA6F8D030D8
:1046F00012781AB9C6F8CC40A6F8D2309DF803005B
:10470000CEE790B9042C14D803460646201A01AA15
:104710000DF10301C0B2FFF721FF4FF480030446FF
:104720005EB10C4AC2F80831CDE700231E46184698
:10473000ECE701231E460420E8E7074AF2E700BF42
:10474000360000203500002000400840001F0021F6
:1047500092170020004008460040084408B500F0C9
:10476000BFFF094B094A002808BF1A46136823F403
:104770007F115B0803F4FE130B431360044B4FF0EF
:104780000072DA6108BD00BF1841084000410840CE
:104790000040084008B500F0A3FF064B4FF400129C
:1047A00028B1C3F800214FF000621A6208BDC3F8B7
:1047B0001821F8E700400844014B1868704700BF13
:1047C0009817002070B505460E46C0B201F00F01E3
:1047D000FFF7D2FDC6F303110446C5F30720FFF728
:1047E000CBFDC6F303210444C5F30740FFF7C4FD26
:1047F000204470BD436C012B38BF01232DE9F047E5
:104800009A46454B454F9B69454E464D03F4E07330
:10481000A3F5C07280464448514251410268524556
:10482000424A0FD114788C420CD198F8D4C03C780D
:10483000A44507D198F816C03478A44502D1A888B9
:10484000BDE8F087B3F5C07FC0F800A011704AD171
:10485000D8F8904024B12368082B58D994F83840F0
:104860000F212046FFF788FDBAFA8AF3B0FA80F2EA
:104870009B1A002BC4BFC3F10F09D840264BD8BFE9
:104880004FF00F0982454FEA0440C3F8BC0003F122
:10489000806340F6FF7238BF09F1FF39C3F8B820D2
:1048A00003F100734FEA0921C3F8B810FFF78AFF3C
:1048B000A88000F09FFC09F01F094FF4FA7304FA76
:1048C00009F45C4341F66A03B0FBF3F0184BB4FB08
:1048D000F0F40A2044431C6098F8D4303B7098F8F8
:1048E00016303370ABE798F8D430022B06D1114B59
:1048F0001B78002B14BFC8249624B1E7012B08D0E5
:104900000C4B1B78002B14BFF024B424A8E7002420
:10491000A6E73224A4E700BF006008403D00002065
:104920003C000020360000203000002090170020BE
:104930009817002095170020FF290DD00F4B104825
:10494000C3F850010B04090503F4E02301F0F871EA
:1049500019430C4BC3F85011FF2A0DD0074B40F2FE
:10496000F711C3F85011130103F4F87302F00702B2
:104970001A43044BC3F85021704700BF004008445D
:104980000000F70100400846F8B5134B134E1F68AE
:10499000134D384600F070FE3378C4B2A34201D103
:1049A0002B78A3B1092C13D80E4B012C195D05D11E
:1049B0000D4B1B78012B01D141F0400101F00F029A
:1049C00038460909FFF7B8FF002334702B70F8BD93
:1049D0000024FA21F2E700BF9C1300209317002067
:1049E000941700203B9500003600002070B5044667
:1049F00000F0A8FB142200213148324E04F09EFB47
:104A0000314B25781A783149521B18BF01220A70A0
:104A100022681A60C820A2889A80FFF707FDD6F89E
:104A2000C8202B4B2B491340C6F8C8302A4BFF2215
:104A30001A70D6F8C830294A23F08043022D23F09B
:104A400017031AD14FF4EE40C2F824014FF48A4202
:104A5000C1F82421012243F08043C1F82021194AE2
:104A6000C2F8C8301D4B0322C3F85821FFF78CFF52
:104A70001B4B01221A70002070BD012D4FF0070062
:104A80000ED1C2F80C010620C1F80C011549C2F87C
:104A900008114FF4404143F00303C2F80411DEE76C
:104AA000C2F80C010520C1F80C01C020C2F80801B1
:104AB00043F08043812243F00403C1F80821CEE78C
:104AC000C81F0021001F002136000020941700207D
:104AD0003F00C0E000400846350000200040084488
:104AE00091170020C10040002DE9F0472D4C2E4BBE
:104AF000236000F07FFB4FF4FA7307464FF47A7699
:104B0000B0FBF6F629482A4A7343190E1B021818FF
:104B100041F10001002303F05BFDA0F58073054621
:104B2000A36220B95F222B21FFF782F801254FF401
:104B30007A726A434FF0000A53465008310203F07C
:104B400047FD1C4B19601C4BB7F57A7F4FEA05688F
:104B50008946044618604FEA152505D26F222B219D
:104B60005046FFF765F801264FF47A71A8FB01085B
:104B70007308C01801FB05814FF0000341F10001EB
:104B8000324603F025FD0D4B023419600C4B49F100
:104B90000009A408186044EA8974024B013C1C63B4
:104BA000BDE8F087005008400211010020A1070075
:104BB00040420F00B0170020AC170020A8170020BB
:104BC000A4170020044B4FF00052C3F880211A6054
:104BD000024B01225A60704700E100E0005008409B
:104BE000054B0201134401221A604FF4807303FA4B
:104BF00000F0024B586670470051084400500840CE
:104C00002DE9F0471446054688461E46FCF7DEF9B6
:104C1000022C00F0AD800746FDF7A4FC664B674907
:104C2000674AD3F8189091F815A0D2F8882B5FFA4C
:104C30008AFA002A40F0A180FDF798FC614B624A95
:104C40001B681068A3FB09314FEA8A7213F1004315
:104C500000FB092242EB0102D8F80010012C04BF2E
:104C600001318918A2EB010208BFC8F80010B2F1A7
:104C7000804F0AF0030AC0F08580544BD3F800E05F
:104C8000534BD3F800804C4B21F04040D3F830C058
:104C90008A0F00234FF00041EEFB001308FB0033A6
:104CA000634581BF01320CF1010CA3EB0C0302F050
:104CB0000302A2EB0A02994588BF3F49DFF82CC1E5
:104CC00084BF096B02F1FF3202F003020CF80520E9
:104CD000A3EB0900A2B1F10742BF3E4A41F61F71A2
:104CE000D166B20742BF3B4A3B49D166710742BF1A
:104CF000314A00211167320742BF2F4A0021116556
:104D00002D4A05F1100102EB051E0901CEF80C3108
:104D1000112353509369D16DA3EB0909814526D323
:104D20004FF48073AB40194221D11CF805100029C3
:104D300037D1002C38D0F007136608D5254B27490A
:104D400041F61F7240F20110DA66C866DA66B107F2
:104D500006D5204B2149204A2148DA66C866DA6622
:104D6000720742BF1F4B01229A60330710D43846A6
:104D7000FCF760FC0120BDE8F087D3F818900AF139
:104D8000010A59E73846FCF755FC0020BDE8F087DA
:104D9000212000F03BF9084B4FF480325A6038462E
:104DA000E6E713663846E3E70F492D01294401255C
:104DB0000D6038465366E6E700500840F4170020BF
:104DC00000000A43A4170020A8170020AC170020F9
:104DD000B01700200050084400001F1F0050084674
:104DE0000000010100400840005108449C170020C9
:104DF0001030034B0001185800F00100704700BF4D
:104E0000005008401030044B01F46001000141F0F3
:104E100003011950704700BF0050084038B5FDF736
:104E2000A1FB084A084B9D69547D084AD2F8882B9B
:104E3000E4B20AB19D690134FDF798FB284604F0FD
:104E4000030138BDF41700200050084000000A4359
:104E500008B5222000F0DAF8024B4FF480225A60A5
:104E600008BD00BF00500840064B1B68434303EBDE
:104E70008171054B1B68A3FB003013F1004341EB2C
:104E800000007047A8170020A417002008B5FFF7FE
:104E9000C5FFBDE80840FFF7E7BF10B50446FFF7C0
:104EA000BDFF844288BF01F1FF31204601F00301BC
:104EB000BDE81040FFF7D8BF0D4A10B5146820F0C8
:104EC000404301464FF000420020E4FB0320094A22
:104ED000126802FB0300084B1B6B98424FEA91716A
:104EE00004D901330131C01A01F0030110BD00BF24
:104EF000AC170020B01700200050084038B5044619
:104F0000FFF7C4FF0546FFF7C1FF431BA342FAD3D7
:104F100038BD000038B5354B354C08220546C3F87E
:104F2000C82034480121FCF7CDF8334B1D7023789D
:104F3000013B012B0CD8237CE07B01229A400C2101
:104F4000302313FB001303F1884303F520431A6059
:104F50002A4B00225A67002D41D06368002B34D0C1
:104F600000F048F9626800EB5203B3FBF2F3013B37
:104F70001B0243F0F8032278022A28D0032A2AD001
:104F8000012A2FD143F0020307221D494FF6FF707B
:104F9000C86701F10071CB67184B5A6753070CD5EE
:104FA000237CE07B01229A400C21302313FB001369
:104FB00003F18C4303F520431A604FF080439DB109
:104FC000104AC2F89430002038BDF823D3E743F0EC
:104FD00001030522D9E743F005030122D5E72A465C
:104FE000F823D2E70022D0E7074AEAE700400E465E
:104FF000B817002000350A00B41700200000084050
:10500000000008440040084600400844044BD3F820
:105010009430002BBCBF034BC3F88000704700BF27
:1050200000400840000008404FF0006318B1034AF8
:10503000C2F894307047024AFAE700BF00400846C1
:10504000004008440020704708B5064B06491A681E
:105050004FF00450920004F063F8BDE8084000F0FF
:10506000E3BB00BF28AF000078950000C0F30062EA
:10507000034B33F8123080B240EA0340704700BF60
:105080004695000007B501A8FEF76CF9134B144ACA
:10509000C3F8442148F2E672C3F838214FF408629D
:1050A000C3F834210F4AC3F8A0200F4A4AF63F4103
:1050B000916002F580424FF0C07191620022C3F806
:1050C000FC200A4AC3F89C20094B7F225A6203F154
:1050D000007323225A6203B05DF804FB00400840CD
:1050E000C0E653517A27000F00300840806D6303FB
:1050F000003008440F4B002210B5C3F88820C3F8D5
:105100008C20C3F890200C4A0121D1605A6812F01B
:10511000706FFBD14FF00452DA67012402F5FD52A3
:10512000C3F880401A66054B1B689847044BDC6047
:1051300010BD00BF0040084000400846400000206D
:1051400000400844034BFD22C3F8C8200122C3F8E5
:10515000CC20704700400E4638B5FFF7F3FF1B4BDD
:105160001B481C4C1C490222C3F8C8201B4B1A6860
:1051700042B102EA0005A54204BF5D68156008332C
:105180008B42F4D1164B174C0222C3F8C820164BA1
:10519000D4F83C211A60FFF775FF144B0322C3F8C3
:1051A000D820134BC4F8943004F1C0640123C4F830
:1051B000943000F031FB4FF46073E3604FF04073C4
:1051C000C4F8F830C4F8103138BD00BF00400E46B6
:1051D0000000FFFF00000840B081E00F0080E00FFA
:1051E00000400E4400400840440000200060084693
:1051F0000008F00008B5FBF7F1FE044BD3F81031BE
:10520000C3F308230133B0FBF3F008BD00400E40A8
:1052100070B5044618B1012521684B1C00D170BD42
:105220000846FFF723FF0E0C16F0FE0F03460ED0C4
:10523000F6B2B200214600EB8606B34251F8040FE5
:1052400002D1131D1C44E7E743F8040BF5E7090FEF
:10525000606808340729DFD8DFE801F00A04081184
:105260000C0F1417C04303F1806301E01A6850402B
:105270001860D1E7FFF742FECEE705FA00F003F130
:10528000C063F5E705FA00F0EDE71A6830EA0202BC
:10529000FBD1C1E708B50C4B1B68D3F8903023B1A4
:1052A0001A68022A01D9186A08BDFFF7A3FF074B45
:1052B0001B6D024698B20028F6D0C3F30743D2080C
:1052C0005343B3FBF0F0EFE79C130020006008406D
:1052D000064B5B68C3F30363984206D10448C36B73
:1052E00023F0F00242EA0112C26370470040084016
:1052F000001F002110B50446FFF7CCFFC4F30113D3
:10530000022B05D0032B09D0012B00D1400810BD82
:10531000C4F3C4240134B0FBF4F0F8E78008F6E7E6
:1053200000F03003202B10B513D110F4E02FC0F3A0
:1053300002431CBFC0F3C422B2FBF3F310F4C01F3E
:1053400018BF5B00052B0DD85C08FFF7D3FF604347
:1053500010BDC0F38213012B06D0042B14BF01240F
:105360000224F2E70424F0E70224EEE72DE9F84FE7
:105370000546FFF78BFDDFF8A0B080460026FBF75F
:1053800025FE224B5968C1F303639F1E012B824601
:10539000FFB228D0052B28D0A3F10B01D1F10009D1
:1053A00049EB0109012F22D8194B9968C1F38914DF
:1053B0000A0448BF44EA0B0424B26B1C03D0FFF775
:1053C00065FDA0EB08065046FCF734F914F5007FA4
:1053D00014D1012F02D9B9F1000F01D0AE42CED3C2
:1053E0002046BDE8F88F9946DCE74FF00109094CEB
:1053F000E3E7512CA8BF4FF4FE74F1E7C83C24B298
:1054000014F5007FF5DC6FF4FF74E9E70040084015
:105410000070084000FEFFFF00FCFFFF024B01226E
:1054200018619A60704700BF00200840084910B515
:10543000D1F8703140B11C464A68D1F870319C42B5
:10544000F9D1C2F30362027003F00F0010BD00BF78
:105450000040084010B5FBF7B9FD084B1B68044637
:105460003BB1984728B1002200204FF4806100F042
:10547000FBFA2046BDE81040FCF7DCB8CC17002052
:105480002DE9F0411F4DDFF89080069FA2FB036CD1
:1054900075196CF1000E0024A84574EB0E0507D2B7
:1054A0004FF4B2720E212046FEF7C2FB02201BE031
:1054B0000029FBD0C0F3130001EB5305B5FBF3F358
:1054C000A3FB0030DB0C43EA40330F4803600F4B73
:1054D0001A600F4B994209D10E4BA6FB036103FBE7
:1054E0000C11890939602046BDE8F0814FEACC4CA7
:1054F0000A462346F0044CEA563103F069F8386056
:10550000F1E700BF00C9E876D0170020D4170020CB
:1055100000F049020A3BB2DF0046C32338B5164DFE
:105520002B780C4623B9154B1B6D03F03F032B70F2
:10553000134BD3F894305B061CD540F24D53114AFF
:10554000B0FBF2F25343A3F546400C38504300F54C
:10555000C91000F5556028B94FF445722B21FEF7AC
:1055600067FB01202B78084A5343B3FBF0F020601F
:10557000002038BD0220FCE7DB1700200030084087
:105580000040084000366E01809698002F4B70B5A1
:105590001C682F4B2F4E1D6B2F4B1B68ED0254BF09
:1055A000E31A1B192D4CB3FA83F5B3F1804F88BF72
:1055B0002646D5F102052A4C54BFEB400025A342F4
:1055C00088BF5B0803EB5604B4FBF6F4254E88BF96
:1055D0000135B34204F1FF3434BF0026012644EA0A
:1055E000862444EA05340C6050B3B3FBF0F1642424
:1055F00000FB11336343984288BF01F1FF314B0830
:10560000581E072801F1FF334FEA530119D80F2B19
:1056100017D8C0B9012B94BF00230123124C23706B
:10562000124C0625C4F8945033B1114B1B781BB1B2
:10563000104B0224C3F894400B0243EA001313609A
:1056400070BD0023EAE70123E8E700BFD41700207C
:1056500000300840E0673500D0170020C0CF6A0056
:105660003FBE4025401B5F13D9170020004008446F
:10567000DA17002000400846084B5B6B03F0070078
:10568000C3F3C20213F0380F18BF5043C3F38212A2
:1056900013F4E07F18BF5043704700BF003008404C
:1056A00070B505460C4651B10B6843B15B6833B128
:1056B0001A68032A03D99C6A640E204670BDFBF762
:1056C00085FCD5F88C60C5F88C4001462846FFF76C
:1056D000D3FFC5F88C6004460846FBF7ABFFECE748
:1056E000034BD3F8380180F01000C0F3001070476E
:1056F00000400840174B4FF4002210B5C3F8942027
:10570000154C164BB0F1804F98BF1C46144BD3F884
:105710008039F3B1134B14481B6F04F5F42404F5DE
:105720009074B4FBF0F4033CE4B203F00703A3422B
:1057300002D02046FCF71CFF0C4B1B784BB10C4BE6
:105740004FF47022C3F8942003F100732404C3F8CB
:10575000944010BD00400846C0CF6A00E0673500A5
:105760000000C64300300E4040420F00D817002012
:10577000004008447FB50446FBF72CFC1B4B226815
:1057800006462C33586800933146A379FFF778FE1C
:10579000054638BBA379012B14BF154915491022C2
:1057A000C1F83821206814495843FFF7B7FE03AA0F
:1057B00002A93046FFF7EAFE0E4A43F6FF53C2F84D
:1057C000A4300B4B0299C3F8A4104FF4EE6111639F
:1057D000039A1A632068FFF78DFF044BA2889A632F
:1057E0000022DA63284604B070BD00BF00300840D4
:1057F00000400846004008445030084008B5044BBB
:1058000001221A70034B1868FFF774FF002008BDCF
:10581000D8170020D4170020024B4022C3F8942050
:10582000704700BF0040084670B5194C0FCC86B0D9
:1058300001AD0FC5C422236816482B60002103F078
:105840007DFC80220021144803F078FC134B144A9D
:10585000C3F8F02002F0C0FC124B1B782BB101AD55
:105860000FCD0B4E0FC62B6823600F4B0F4AC3F8AA
:10587000DC2F0F4AC3F8E02F0E4AC3F8E42F02F1E1
:10588000957202F27112C3F8E82F06B070BD00BF26
:10589000C81F00213C1F0021BC1E0021001F002149
:1058A0003F00370091170020001000210200620223
:1058B00009C805780708DC060A4B197801F0FF02D1
:1058C00029B10021197008499202C1F8A020597825
:1058D00001F0FF0229B1002159709302024AC2F877
:1058E000A43070470F18002000000846074BD3F87B
:1058F000E80E074BD3F88C301A0103D4054B1B6E0E
:105900001B0401D500F58070704700BF0010002116
:10591000004008400000084008B5FBF757FB104B5B
:105920001B78A3B90F4A126812F4843F0FD10E4BB3
:105930001022C3F894200B4B1B68DB050DD40A4BD7
:105940002022C3F89420BDE80840FBF773BE074A45
:105950001021C2F89410002BEDD0044BF0E700BFEB
:10596000F1170020E81700200040084400400846D6
:10597000044B00221A70044B197811B11A70FFF70A
:10598000CBBF7047F2170020F117002010B5FBF7CE
:105990001DFB0E2104460320FFF79AFC044B40F246
:1059A000012220465A62BDE81040FBF743BE00BF0B
:1059B0000000084008B503210920FFF789FC024BCD
:1059C00020229A6008BD00BF0040084008B5FBF7E0
:1059D000FDFA244B4FF08052C3F88020BFF34F8F65
:1059E000BFF36F8F4FF48072C3F88020BFF34F8FE7
:1059F000BFF36F8F0222C3F88020BFF34F8FBFF336
:105A00006F8F1022C3F88020BFF34F8FBFF36F8FCB
:105A10002022C3F88020BFF34F8FBFF36F8F4FF06A
:105A20000052C3F88020BFF34F8FBFF36F8F8022E7
:105A3000C3F88020BFF34F8FBFF36F8F4022C3F8AE
:105A40008020BFF34F8FBFF36F8F4FF00042C3F83A
:105A50008020BFF34F8FBFF36F8FBDE80840FBF787
:105A6000E9BD00BF00E100E070B5084C01232370E0
:105A7000074B1E68074BD3E90053324019402840BA
:105A800001F0E8F90023237070BD00BFF01700207B
:105A9000E0170020E81700202DE9F84FDDF828B0C6
:105AA00003EA01080B9B06460D4602EA000903EAD9
:105AB0000B0ABBF1000F40F06481031F0B4300F0A1
:105AC0002881052871F1000380F0FB8050EA010372
:105AD00000F07781431E0B4300F03781FFF776FF1C
